:100000000C945C000C946E000C946E000C946E00CA
:100010000C946E000C946E000C946E000C946E00A8
:100020000C946E000C9454020C946E000C946E00B0
:100030000C946E000C946E000C946E000C946E0088
:100040000C94D8000C946E000C946E000C946E000E
:100050000C946E000C946E000C946E000C946E0068
:100060000C946E000C946E0000000007000201006A
:100070000003040600000000000000000102040864
:100080001020408001020408102001020408102002
:10009000040404040404040402020202020203032E
:1000A0000303030300000000250028002B000000CC
:1000B0000000240027002A0011241FBECFEFD8E043
:1000C000DEBFCDBF21E0A0E0B1E001C01D92A334AE
:1000D000B207E1F70E9447020C94F4020C9400006E
:1000E00061E082E00E94DB0161E085E00E94DB01CB
:1000F00061E083E00E94DB0161E086E00C94DB01BB
:10010000CF93DF9361E085E00E94170261E086E013
:100110000E941702C8EED3E061E082E00E9417025D
:1001200061E083E00E94170281E090E00E946D018F
:1001300060E082E00E94170260E083E00E94170204
:1001400084EF91E00E946D01219731F768EE73E032
:1001500080E090E00E94470160E085E00E94170285
:1001600060E086E00E941702C0E9D1E061E082E031
:100170000E94170261E083E00E94170284EF91E081
:100180000E946D0160E082E00E94170260E083E05F
:100190000E94170284EF91E00E946D01219731F7D0
:1001A00068EE73E080E090E0DF91CF910C9447011E
:1001B0001F920F920FB60F9211242F933F938F939C
:1001C0009F93AF93BF938091010190910201A09101
:1001D0000301B09104013091000123E0230F2D377A
:1001E00020F40196A11DB11D05C026E8230F02963B
:1001F000A11DB11D20930001809301019093020184
:10020000A0930301B0930401809105019091060130
:10021000A0910701B09108010196A11DB11D809325
:10022000050190930601A0930701B0930801BF91C7
:10023000AF919F918F913F912F910F900FBE0F9093
:100240001F9018953FB7F894809105019091060191
:10025000A0910701B091080126B5A89B05C02F3FCA
:1002600019F00196A11DB11D3FBFBA2FA92F982FDC
:100270008827820F911DA11DB11DBC01CD0142E057
:10028000660F771F881F991F4A95D1F70895CF925F
:10029000DF92EF92FF92CF93DF936B017C010E947C
:1002A0002201EB01C114D104E104F10479F00E94B0
:1002B00022016C1B7D0B683E7340A0F381E0C81ADD
:1002C000D108E108F108C851DC4FECCFDF91CF91A4
:1002D000FF90EF90DF90CF900895019739F0880F4D
:1002E000991F880F991F02970197F1F70895789445
:1002F00084B5826084BD84B5816084BD85B582602B
:1003000085BD85B5816085BDEEE6F0E080818160C8
:100310008083E1E8F0E010828081826080838081C8
:1003200081608083E0E8F0E0808181608083E1EBA0
:10033000F0E0808184608083E0EBF0E08081816088
:100340008083EAE7F0E0808184608083808182603E
:100350008083808181608083808180688083109227
:10036000C1000895833081F028F4813099F0823003
:10037000A1F008958630A9F08730B9F08430D1F427
:10038000809180008F7D03C0809180008F77809363
:100390008000089584B58F7702C084B58F7D84BDB9
:1003A00008958091B0008F7703C08091B0008F7D59
:1003B0008093B0000895CF93DF9390E0FC01E45860
:1003C000FF4F2491FC01E057FF4F8491882361F196
:1003D00090E0880F991FFC01E255FF4FC591D49121
:1003E000FC01EC55FF4FA591B491611109C09FB775
:1003F000F8948881209582238883EC912E230BC06A
:10040000623061F49FB7F8943881822F80958323FE
:100410008883EC912E2B2C939FBF06C08FB7F89446
:10042000E8812E2B28838FBFDF91CF9108951F93F2
:10043000CF93DF93282F30E0F901E859FF4F8491E3
:10044000F901E458FF4FD491F901E057FF4FC491EF
:10045000CC23C9F0162F81110E94B201EC2FF0E0DD
:10046000EE0FFF1FEC55FF4FA591B4918FB7F89495
:10047000111105C09C91ED2FE095E92302C0EC918C
:10048000ED2BEC938FBFDF91CF911F9108950E94C8
:1004900077010E947000C0E0D0E00E9480002097A9
:1004A000E1F30E940000F9CF1F920F920FB60F9256
:1004B00011240F931F932F933F934F935F936F9349
:1004C0007F938F939F93AF93BF93CF93DF93EF93DC
:1004D000FF9310E003E180910901181708F06FC045
:1004E000C12FD0E00C9FF0010D9FF00D1124E65FAD
:1004F000FE4F83859485892B21F083859485019710
:100500005AC085859685892B09F44CC0828588233D
:1005100019F0808161E002C0808160E00E941702D2
:100520000C9FF0010D9FF00D1124E65FFE4F8185B9
:100530004581568167817085082E000C990BAA0BA6
:10054000BB0B840F951FA61FB71F85839683A783B8
:10055000B087928581E0911180E00C9FF0010D9FA2
:10056000F00D1124E65FFE4F828787859089A1896F
:10057000B289892B8A2B8B2BA9F087859089A18939
:10058000B2890197A109B1098787908BA18BB28BA2
:1005900087859089A189B289892B8A2B8B2B11F4AD
:1005A000168615860C9FF0010D9FF00D1124E65F55
:1005B000FE4F85859685948783871F5F8CCFFF913B
:1005C000EF91DF91CF91BF91AF919F918F917F91EB
:1005D0006F915F914F913F912F911F910F910F90CC
:1005E0000FBE0F901F901895F8940C94F702F89492
:0205F000FFCF3B
:00000001FF
