:100000000C946D000C9495000C9495000C94950044
:100010000C9495000C9495000C9495000C9495000C
:100020000C9495000C9495000C9495000C949500FC
:100030000C9495000C9495000C9495000C949500EC
:100040000C94E8060C9495000C9495000C94950083
:100050000C9495000C9495000C9495000C949500CC
:100060000C9495000C9495003B014201490150010C
:1000700057016E015E016E016501DF01E501EB01D3
:10008000F101F701FD010302000000070002010079
:100090000003040600000000000000000102040844
:1000A00010204080010204081020010204081020E2
:1000B000040404040404040402020202020203030E
:1000C0000303030300000000250028002B000000AC
:1000D0000000240027002A00050111241FBECFEFD5
:1000E000D8E0DEBFCDBF11E0A0E0B1E0ECE2F6E188
:1000F00002C005900D92AA31B107D9F721E0AAE11B
:10010000B1E001C01D92AB3AB207E1F710E0CDE6D5
:10011000D0E004C02197FE010E94EC0ACC36D10742
:10012000C9F70E941F010C9431080C94000040E0B4
:1001300050E46CE176E48EE591E00E94520640E0E6
:1001400050E06AE774E48EE591E00E94C40640E165
:1001500057E260E070E08EE591E00E94290540E002
:1001600050E46CE176E48AE191E00E94520640E0BE
:1001700050E06AE774E48AE191E00E94C40648EE28
:1001800053E060E070E08AE191E00C9429050F9360
:100190001F938EE591E00E94A103672B682B692BCA
:1001A00089F48EE591E00E94B5038B019C01442700
:1001B0005527BA01401B510B620B730B8EE591E082
:1001C0000E9429058AE191E00E94A103672B682B18
:1001D000692B89F48AE191E00E94B5038B019C01AF
:1001E00044275527BA01401B510B620B730B8AE160
:1001F00091E00E9429058EE591E00E94C3058AE105
:1002000091E01F910F910C94C305CF92EF920F9341
:10021000CC24C39485E0E82E04E025E042E061E0D0
:100220008EE591E00E94F00526E043E061E08AE17E
:1002300091E00E94F0050F91EF90CF9008950E94F9
:1002400061070E949700C0E0D0E00E94C70020979D
:10025000E1F30E940000F9CF0F931F93DC01139686
:10026000EC910E2F10E009301105C0F5F801EC5C9F
:10027000FF4F0C94EC0ADC01ED91FC910084F185B8
:10028000E02D29C0DC01ED91FC910284F385E02D85
:1002900022C0DC01ED91FC910484F585E02D1BC0AA
:1002A000DC01ED91FC910684F785E02D14C0DC01A2
:1002B000ED91FC910088F189E02D0DC0DC01ED91FC
:1002C000FC910288F389E02D06C0DC01ED91FC91E0
:1002D0000488F589E02D1F910F9109941F910F91CA
:1002E0000895CF93DF93EC01CB01BA0126E030E013
:1002F00040E050E00E94CD0A623071058105910511
:1003000059F18CF46115710581059105F1F06130A9
:10031000710581059105C1F5E881F9810480F581B8
:10032000E02D65E02DC0643071058105910511F166
:10033000D4F0653071058105910531F5E881F981C9
:100340000480F581E02D66E01BC0E881F98104801E
:10035000F581E02D64E014C0E881F9810480F58125
:10036000E02D61E00DC0E881F9810480F581E02D88
:1003700063E006C0E881F9810480F581E02D62E048
:10038000CE01DF91CF910994DF91CF910895CF9362
:10039000DF934770552766277727FA013197EC01DD
:1003A000A881B981E730F10520F4E35CFF4F0C949C
:1003B000EC0A1496ED91FC91159761E029C0149612
:1003C000ED91FC91159765E023C01496ED91FC9199
:1003D000159764E01DC01496ED91FC91159766E0A9
:1003E00017C01496ED91FC91159762E011C0149618
:1003F000ED91FC9115976AE00BC01496ED91FC917C
:10040000159768E005C01496ED91FC91159769E089
:10041000DF91CF910994CF92DF92EF92FF920F93E9
:100420001F93CF93DF93FC012381243041F02830C8
:1004300031F0233031F0263021F012E003C014E017
:1004400001C013E0EC012896E12CF12CC62ED12C32
:1004500001E0C6010E2C02C0959587950A94E2F73B
:10046000688180FD6027FE01349780810E94010829
:10047000FFEFEF1AFF0A2196E11658F3DF91CF91B3
:100480001F910F91FF90EF90DF90CF900895CF9341
:10049000DF93EC01E881F9810480F581E02D6A8128
:1004A000611162E0CE010995E881F9810480F5814E
:1004B000E02D8A81811102C061E001C063E0CE01BC
:1004C00009958CA59DA50E945707E881F9810480B4
:1004D000F581E02D6A81611162E0CE01DF91CF915B
:1004E0000994CF93DF93EC0120E030E0A9016C89FF
:1004F0007D898E899F890E94000A18161CF4E8A93C
:10050000F9A902C0EAA9FBA9DF91CF910994437030
:10051000552766277727DC01ED91FC910480F58152
:10052000E02D423051056105710571F043305105F0
:100530006105710559F0413051056105710511F0F2
:1005400062E005C063E003C061E001C060E00994BF
:10055000CF93DF93EC01CB01BA0123E030E040E020
:1005600050E00E94CD0A613071058105910581F04E
:10057000623071058105910591F0672B682B692B1D
:10058000C1F4E881F9810480F581E02D64E00DC0BB
:10059000E881F9810480F581E02D61E006C0E88101
:1005A000F9810480F581E02D62E0CE01DF91CF91E9
:1005B0000994DF91CF9108954370552766277727D7
:1005C000DC01ED91FC910480F581E02D4230510574
:1005D0006105710571F0433051056105710559F0F0
:1005E000413051056105710511F065E005C066E017
:1005F00003C06AE001C069E00994CF93DF93FC0176
:1006000023812223A9F0EC010190F081E02D0480E8
:10061000F581E02D60E009958FA58F3F49F061E0FD
:100620000E94C5076EA58FA5DF91CF910C9401089C
:10063000DF91CF910895CF93DF93FC012381222393
:1006400059F1EC0161E084810E94C50761E08D8170
:100650000E94C5078B81843011F0883039F461E045
:100660008E810E94C50761E08F8106C0833011F042
:10067000863021F461E08E810E94C5078FA58F3FEF
:1006800059F061E00E94C5076EA581E068278FA53B
:10069000DF91CF910C940108DF91CF910895CF9213
:1006A000DF92EF92FF92CF93DF93FC0144A155A11B
:1006B00066A177A1452B462B472B11F480E03AC069
:1006C000EC010E9432076B017C0188A599A5AAA5BF
:1006D000BBA5B701A601481B590B6A0B7B0B8CA16C
:1006E0009DA1AEA1BFA1481759076A077B0730F348
:1006F0002A818C859D85AE85BF85213021F40196A8
:10070000A11DB11D03C00197A109B1098C879D8767
:10071000AE87BF87E881F9814C855D856E857F85D1
:100720000680F781E02DCE010995C8A6D9A6EAA6D4
:10073000FBA681E0DF91CF91FF90EF90DF90CF900B
:1007400008950F931F93FC0180899189A289B38931
:100750000485158526853785BC01CD01601B710B8D
:10076000820B930B1F910F910895FC016485758591
:100770008685978508952F923F924F925F926F9250
:100780007F928F929F92AF92BF92CF92DF92EF9221
:10079000FF920F931F93CF93DF9300D000D0CDB77C
:1007A000DEB71C01FC01C088D188E288F38884850B
:1007B0009585A685B785C81AD90AEA0AFB0A64890D
:1007C0007589868997899B01AC010E94050A4B01B6
:1007D0005C01F101648D758D868D978D9B01AC0157
:1007E0000E9435089B01AC01C501B4010E94A60816
:1007F0000E941809C114D104E104F104A1F462308B
:100800007105810591050CF07CC0F10114A215A2BF
:1008100016A217A2148A158A168A178A14AA15AA6C
:1008200016AA17AAFFC0F10104A915A926A937A97C
:100830001C141D041E041F0404F5101611061206D4
:1008400013064CF46C157D058E059F055CF5228121
:10085000211157C027C0011511052105310509F4E3
:1008600050C06C157D058E059F050CF04AC0F10146
:100870008281813009F045C039C010161106120678
:100880001306FCF40027112798010C191D092E09E5
:100890003F09601771078207930724F4F101228151
:1008A000213079F59B01AC0188279927DC01821B57
:1008B000930BA40BB50BF10184AB95ABA6ABB7AB17
:1008C00020C00115110521053105D9F0882499248E
:1008D00054018C189D08AE08BF08681579058A0573
:1008E0009B057CF4F101828181110BC0309520952C
:1008F000109501951F4F2F4F3F4F04AB15AB26AB03
:1009000037ABF10184A895A8A6A8B7A881149104D3
:10091000A104B10491F480AD91ADA2ADB3AD84AFAB
:1009200095AFA6AFB7AF81E01C141D041E041F04D1
:100930000CF080E0F101828341C0F101C4ACD5AC80
:10094000E6ACF7ACA7019601C701B6010E943508D5
:100950002B013C01C501B4010E94500920E030E0A8
:1009600040E850E40E94050A20E030E040E85FE300
:100970000E9435089B01AC01C301B2010E94A60888
:100980009B01AC01C701B6010E9434083B016C0118
:10099000F101E05CFF4FE080F1800281138197015B
:1009A000A8010E94000A181614F473018601C701F9
:1009B000D801F10184AF95AFA6AFB7AFFFEF8F1AA3
:1009C0009F0AAF0ABF0AF10184AA95AAA6AAB7AAEC
:1009D00024AD35AD46AD57ADCA01B90129833A837F
:1009E0004B835C830E941F09F10164A375A386A356
:1009F00097A329813A814B815C8160E074E284E7AE
:100A000099E40E94A608F101648B758B868B978B05
:100A10002281211107C0DC01CB01B058848B958B5A
:100A2000A68BB78B0F900F900F900F90DF91CF9107
:100A30001F910F91FF90EF90DF90CF90BF90AF90FC
:100A40009F908F907F906F905F904F903F902F90EE
:100A500008950F931F93FC0100891189228933891E
:100A6000041715072607370741F0408B518B628B1F
:100A7000738B1F910F910C94BB031F910F910895DD
:100A80004F925F926F927F928F929F92AF92BF929E
:100A9000CF92DF92EF92FF92CF93DF93EC016A0146
:100AA0007B0120E030E0A901C701B6010E94A10846
:100AB00087FF04C0F7FAF094F7F8F0948C8C9D8CC3
:100AC000AE8CBF8CA7019601C501B4010E94A1089C
:100AD000882309F449C06CA97DA98EA99FA90E9409
:100AE00050092B013C01A7019601C501B4010E94E8
:100AF000A6089B01AC01C301B2010E94050A0E9435
:100B000018096CAB7DAB8EAB9FABA701960160E083
:100B100070E080E090E40E94A6080E94780A26E532
:100B20003EE04DE25FE30E94050A20E034E244E744
:100B300059E40E94050A68AF79AF8AAF9BAFCC8EAB
:100B4000DD8EEE8EFF8ECE01DF91CF91FF90EF9084
:100B5000DF90CF90BF90AF909F908F907F906F90DD
:100B60005F904F900C94BB03DF91CF91FF90EF907B
:100B7000DF90CF90BF90AF909F908F907F906F90BD
:100B80005F904F9008950F931F93CF93DF93EC01E5
:100B90000E944F03882319F0CE010E94BB0320E07E
:100BA00030E0A9016C897D898E899F890E94A10806
:100BB000811110C081E0088919892A893B894C85F7
:100BC0005D856E857F85041715072607370719F49D
:100BD00080E001C081E0DF91CF911F910F910895D6
:100BE000CF92EF920F93CF93DF93EC0184E091E0EB
:100BF000998388836B831C861D861E861F86188AB0
:100C0000198A1A8A1B8A1C8A1D8A1E8A1F8A80E0FA
:100C100090E0A0E8BFE3888F998FAA8FBB8F1C8ECE
:100C20001D8E1E8E1F8E88A399A3AAA3BBA31CA2F0
:100C30001DA21EA21FA261E070E07DA76CA73FEF7E
:100C40003FA718A619A61AA61BA64C832D830E83B0
:100C5000EF821CAA1DAA1EAA1FAA18AE19AE1AAEB0
:100C60001BAE1CAE1DAE1EAE1FAEFE01E05CFF4F04
:100C700080839183A283B3831A82188619861A8689
:100C80001B86CC2019F0CE010E941B0340E050E0EF
:100C900060E87FE3CE01DF91CF910F91EF90CF908D
:100CA0000C944005CF92DF92EF92FF920F931F9327
:100CB000CF93DF93EC016A017B0120E030E0A901D2
:100CC000C701B6010E94A10887FF04C0F7FAF0949B
:100CD000F7F8F094A7019601688D798D8A8D9B8D28
:100CE0000E94A108882309F446C0C88ED98EEA8ED6
:100CF000FB8E8E01005C1F4FA701960160E074E23D
:100D000084E799E40E94A608F801608371838283D6
:100D100093838CA99DA9AEA9BFA9181619061A0616
:100D20001B064CF56C897D898E899F899B01AC01DE
:100D30000E94050A6B017C016C8D7D8D8E8D9F8DCF
:100D40009B01AC010E9435089B01AC01C701B601B3
:100D50000E94A6080E9418096CAB7DAB8EAB9FABBE
:100D6000CE01DF91CF911F910F91FF90EF90DF9017
:100D7000CF900C94BB03DF91CF911F910F91FF9007
:100D8000EF90DF90CF900895CF92DF92EF92FF9295
:100D9000CF93DF93EC016A017B0120E030E0A901F1
:100DA000C701B6010E94A108882359F0B701A60126
:100DB000CE01DF91CF91FF90EF90DF90CF900C9418
:100DC0004005DF91CF91FF90EF90DF90CF90089595
:100DD0001F920F920FB60F9211242F933F938F9370
:100DE0009F93AF93BF938091A3019091A401A09191
:100DF000A501B091A6013091A20123E0230F2D3768
:100E000020F40196A11DB11D05C026E8230F02960E
:100E1000A11DB11D2093A2018093A3019093A40171
:100E2000A093A501B093A6018091A7019091A8017C
:100E3000A091A901B091AA010196A11DB11D8093B5
:100E4000A7019093A801A093A901B093AA01BF9113
:100E5000AF919F918F913F912F910F900FBE0F9067
:100E60001F9018953FB7F8948091A7019091A80121
:100E7000A091A901B091AA0126B5A89B05C02F3F5A
:100E800019F00196A11DB11D3FBFBA2FA92F982FB0
:100E90008827820F911DA11DB11DBC01CD0142E02B
:100EA000660F771F881F991F4A95D1F708950197FC
:100EB00039F0880F991F880F991F02970197F1F752
:100EC0000895789484B5826084BD84B5816084BDC2
:100ED00085B5826085BD85B5816085BDEEE6F0E0B3
:100EE000808181608083E1E8F0E01082808182600F
:100EF0008083808181608083E0E8F0E08081816090
:100F00008083E1EBF0E0808184608083E0EBF0E0BF
:100F1000808181608083EAE7F0E080818460808363
:100F2000808182608083808181608083808180680D
:100F300080831092C1000895833081F028F48130BD
:100F400099F08230A1F008958630A9F08730B9F089
:100F50008430D1F4809180008F7D03C08091800027
:100F60008F7780938000089584B58F7702C084B511
:100F70008F7D84BD08958091B0008F7703C08091EC
:100F8000B0008F7D8093B0000895CF93DF9390E001
:100F9000FC01E456FF4F2491FC01E055FF4F849182
:100FA000882361F190E0880F991FFC01E253FF4F05
:100FB000C591D491FC01EC53FF4FA591B4916111FF
:100FC00009C09FB7F8948881209582238883EC918B
:100FD0002E230BC0623061F49FB7F8943881822FC2
:100FE000809583238883EC912E2B2C939FBF06C082
:100FF0008FB7F894E8812E2B28838FBFDF91CF9194
:1010000008951F93CF93DF93282F30E0F901E8571D
:10101000FF4F8491F901E456FF4FD491F901E05557
:10102000FF4FC491CC23C9F0162F81110E949C0759
:10103000EC2FF0E0EE0FFF1FEC53FF4FA591B491A2
:101040008FB7F894111105C09C91ED2FE095E9231D
:1010500002C0EC91ED2BEC938FBFDF91CF911F91EC
:101060000895F8940C94140B5058BB27AA270E949B
:101070004C080C94C6090E94B80938F00E94BF09B8
:1010800020F039F49F3F19F426F40C94B5090EF4BE
:10109000E095E7FB0C94AF09E92F0E94D70958F3BC
:1010A000BA17620773078407950720F079F4A6F54D
:1010B0000C94F9090EF4E0950B2EBA2FA02D0B011C
:1010C000B90190010C01CA01A0011124FF27591B8D
:1010D00099F0593F50F4503E68F11A16F040A22F93
:1010E000232F342F4427585FF3CF46953795279504
:1010F000A795F0405395C9F77EF41F16BA0B620B03
:10110000730B840BBAF09150A1F0FF0FBB1F661F49
:10111000771F881FC2F70EC0BA0F621F731F841F8C
:1011200048F4879577956795B795F7959E3F08F0B2
:10113000B0CF9395880F08F09927EE0F9795879574
:1011400008950E948B0908F481E008950E94BA086E
:101150000C94C6090E94BF0958F00E94B80940F0DB
:1011600029F45F3F29F00C94AF0951110C94FA094E
:101170000C94B5090E94D70968F39923B1F355235C
:1011800091F3951B550BBB27AA276217730784079A
:1011900038F09F5F5F4F220F331F441FAA1FA9F330
:1011A00035D00E2E3AF0E0E832D091505040E6951E
:1011B000001CCAF72BD0FE2F29D0660F771F881F7F
:1011C000BB1F261737074807AB07B0E809F0BB0B72
:1011D000802DBF01FF2793585F4F3AF09E3F510586
:1011E00078F00C94AF090C94FA095F3FE4F3983E51
:1011F000D4F3869577956795B795F7959F5FC9F76F
:10120000880F911D9695879597F90895E1E0660FEF
:10121000771F881FBB1F621773078407BA0720F068
:10122000621B730B840BBA0BEE1F88F7E0950895D1
:101230000E941F096894B1110C94FA0908950E9444
:10124000DF0988F09F5798F0B92F9927B751B0F070
:10125000E1F0660F771F881F991F1AF0BA95C9F73A
:1012600014C0B13091F00E94F909B1E008950C94D6
:10127000F909672F782F8827B85F39F0B93FCCF389
:10128000869577956795B395D9F73EF490958095B7
:10129000709561957F4F8F4F9F4F0895E89409C0D7
:1012A00097FB3EF490958095709561957F4F8F4F99
:1012B0009F4F9923A9F0F92F96E9BB279395F695AF
:1012C000879577956795B795F111F8CFFAF4BB0F2D
:1012D00011F460FF1BC06F5F7F4F8F4F9F4F16C091
:1012E000882311F096E911C0772321F09EE8872F1B
:1012F000762F05C0662371F096E8862F70E060E0D7
:101300002AF09A95660F771F881FDAF7880F96954F
:10131000879597F90895990F0008550FAA0BE0E8F3
:10132000FEEF16161706E807F907C0F012161306A7
:10133000E407F50798F0621B730B840B950B39F4E7
:101340000A2661F0232B242B252B21F408950A264D
:1013500009F4A140A6958FEF811D811D089597F98D
:101360009F6780E870E060E008959FEF80EC08954B
:1013700000240A9416161706180609060895002474
:101380000A9412161306140605060895092E0394EE
:10139000000C11F4882352F0BB0F40F4BF2B11F462
:1013A00060FF04C06F5F7F4F8F4F9F4F089557FDC1
:1013B0009058440F551F59F05F3F71F04795880FC3
:1013C00097FB991F61F09F3F79F08795089512165A
:1013D00013061406551FF2CF4695F1DF08C0161606
:1013E00017061806991FF1CF8695710561050894B7
:1013F0000895E894BB2766277727CB0197F90895CE
:101400000E948B0908F48FEF08950E94180A0C942B
:10141000C6090E94B80938F00E94BF0920F0952340
:1014200011F00C94AF090C94B50911240C94FA092D
:101430000E94D70970F3959FC1F3950F50E0551F97
:10144000629FF001729FBB27F00DB11D639FAA2719
:10145000F00DB11DAA1F649F6627B00DA11D661F68
:10146000829F2227B00DA11D621F739FB00DA11D89
:10147000621F839FA00D611D221F749F3327A00D43
:10148000611D231F849F600D211D822F762F6A2FDF
:1014900011249F5750409AF0F1F088234AF0EE0F44
:1014A000FF1FBB1F661F771F881F91505040A9F771
:1014B0009E3F510580F00C94AF090C94FA095F3FF0
:1014C000E4F3983ED4F3869577956795B795F795AD
:1014D000E7959F5FC1F7FE2B880F911D9695879525
:1014E00097F9089519F416F40C94B5090C94B80AF8
:1014F0000E94DF09B8F39923C9F3B6F39F57550B40
:1015000087FF0E94C60A0024A0E640EA90018058A6
:101510005695979528F4805C660F771F881F20F0FA
:1015200026173707480730F4621B730B840B2029FA
:1015300031294A2BA69517940794202531254A274F
:1015400058F7660F771F881F20F0261737074807C0
:1015500030F4620B730B840B200D311D411DA095DF
:1015600081F7B901842F9158880F96958795089532
:101570009F3F31F0915020F4879577956795B79507
:10158000880F911D9695879597F908959150504031
:10159000660F771F881FD2F70895052E97FB1EF45C
:1015A00000940E94E40A57FD07D00E94F20A07FC4B
:1015B00003D04EF40C94E40A509540953095219553
:1015C0003F4F4F4F5F4F089590958095709561956F
:1015D0007F4F8F4F9F4F0895EE0FFF1F0590F4919F
:1015E000E02D0994A1E21A2EAA1BBB1BFD010DC020
:1015F000AA1FBB1FEE1FFF1FA217B307E407F507C3
:1016000020F0A21BB30BE40BF50B661F771F881F9E
:10161000991F1A9469F760957095809590959B0134
:0C162000AC01BD01CF010895F894FFCF8C
:10162C0000000000FD021B030B022C01710247029B
:0A163C008702A802DC027101C70159
:00000001FF
