:100000000C946D000C9495000C9495000C94950044
:100010000C9495000C9495000C9495000C9495000C
:100020000C9495000C9495000C9495000C949500FC
:100030000C9495000C9495000C9495000C949500EC
:100040000C9497060C9495000C9495000C949500D4
:100050000C9495000C9495000C9495000C949500CC
:100060000C9495000C949500F500FC0003010A0126
:1000700011012801180128011F0199019F01A50103
:10008000AB01B101B701BD01000000070002010092
:100090000003040600000000000000000102040844
:1000A00010204080010204081020010204081020E2
:1000B000040404040404040402020202020203030E
:1000C0000303030300000000250028002B000000AC
:1000D0000000240027002A00BF0011241FBECFEF1C
:1000E000D8E0DEBFCDBF11E0A0E0B1E0EAE8F5E185
:1000F00002C005900D92AA31B107D9F721E0AAE11B
:10010000B1E001C01D92AB3AB207E1F710E0CDE6D5
:10011000D0E004C02197FE010E949B0ACC36D10793
:10012000C9F70E94D9000C94E0070C94000040E04D
:1001300050E46CE176E48EE591E00E94AE0540E08B
:1001400050E06AE775E48EE591E00E94200640E009
:1001500050E46CE176E48AE191E00E94AE0540E073
:1001600050E06AE775E48AE191E00C9420068EE5A0
:1001700091E00E9409038AE191E00C940903CF9277
:10018000EF920F93CC24C39485E0E82E04E025E0A1
:1001900042E061E08EE591E00E944C0526E043E0FC
:1001A00061E08AE191E00E944C050F91EF90CF90C1
:1001B00008950E9410070E949700C0E0D0E00E94BE
:1001C000B7002097E1F30E940000F9CF0F931F932F
:1001D000DC011396EC910E2F10E009301105C0F5EB
:1001E000F801EC5CFF4F0C949B0ADC01ED91FC9153
:1001F0000084F185E02D29C0DC01ED91FC910284A1
:10020000F385E02D22C0DC01ED91FC910484F5859D
:10021000E02D1BC0DC01ED91FC910684F785E02DFB
:1002200014C0DC01ED91FC910088F189E02D0DC036
:10023000DC01ED91FC910288F389E02D06C0DC0120
:10024000ED91FC910488F589E02D1F910F9109949F
:100250001F910F910895CF93DF93EC01CB01BA0169
:1002600026E030E040E050E00E947C0A62307105F8
:100270008105910559F18CF4611571058105910590
:10028000F1F06130710581059105C1F5E881F981D1
:100290000480F581E02D65E02DC064307105810595
:1002A000910511F1D4F0653071058105910531F5A5
:1002B000E881F9810480F581E02D66E01BC0E881CA
:1002C000F9810480F581E02D64E014C0E881F981B2
:1002D0000480F581E02D61E00DC0E881F9810480A2
:1002E000F581E02D63E006C0E881F9810480F581A5
:1002F000E02D62E0CE01DF91CF910994DF91CF91A3
:100300000895CF93DF934770552766277727FA0123
:100310003197EC01A881B981E730F10520F4E35C65
:10032000FF4F0C949B0A1496ED91FC91159761E098
:1003300029C01496ED91FC91159765E023C01496A1
:10034000ED91FC91159764E01DC01496ED91FC9120
:10035000159766E017C01496ED91FC91159762E031
:1003600011C01496ED91FC9115976AE00BC014969C
:10037000ED91FC91159768E005C01496ED91FC9104
:10038000159769E0DF91CF910994CF92DF92EF92B8
:10039000FF920F931F93CF93DF93FC0123812430AF
:1003A00041F0283031F0233031F0263021F012E0D6
:1003B00003C014E001C013E0EC012896E12CF12CFD
:1003C000C62ED12C01E0C6010E2C02C09595879552
:1003D0000A94E2F7688180FD6027FE0134978081EE
:1003E0000E94B007FFEFEF1AFF0A2196E11658F3BB
:1003F000DF91CF911F910F91FF90EF90DF90CF9001
:100400000895CF93DF93EC01E881F9810480F581B1
:10041000E02D6A81611162E0CE010995E881F981E0
:100420000480F581E02D8A81811102C061E001C064
:1004300063E0CE0109958CA59DA50E940607E88181
:10044000F9810480F581E02D6A81611162E0CE01BD
:10045000DF91CF910994CF93DF93EC0120E030E05E
:10046000A9016C897D898E899F890E94AF09181620
:100470001CF4E8A9F9A902C0EAA9FBA9DF91CF9170
:1004800009944370552766277727DC01ED91FC918D
:100490000480F581E02D423051056105710571F050
:1004A000433051056105710559F041305105610531
:1004B000710511F062E005C063E003C061E001C0B6
:1004C00060E00994CF93DF93EC01CB01BA0123E004
:1004D00030E040E050E00E947C0A61307105810507
:1004E000910581F0623071058105910591F0672BCE
:1004F000682B692BC1F4E881F9810480F581E02D36
:1005000064E00DC0E881F9810480F581E02D61E0AF
:1005100006C0E881F9810480F581E02D62E0CE011A
:10052000DF91CF910994DF91CF91089543705527C2
:1005300066277727DC01ED91FC910480F581E02DA1
:10054000423051056105710571F043305105610577
:10055000710559F0413051056105710511F065E0F3
:1005600005C066E003C06AE001C069E00994CF936A
:10057000DF93FC0123812223A9F0EC010190F0819B
:10058000E02D0480F581E02D60E009958FA58F3F77
:1005900049F061E00E9474076EA58FA5DF91CF91AD
:1005A0000C94B007DF91CF910895CF93DF93FC01B6
:1005B0002381222359F1EC0161E084810E947407B8
:1005C00061E08D810E9474078B81843011F0883046
:1005D00039F461E08E810E94740761E08F8106C06A
:1005E000833011F0863021F461E08E810E9474071F
:1005F0008FA58F3F59F061E00E9474076EA581E0DE
:1006000068278FA5DF91CF910C94B007DF91CF9130
:100610000895CF92DF92EF92FF92CF93DF93FC0188
:1006200044A155A166A177A1452B462B472B11F478
:1006300080E03AC0EC010E94E1066B017C0188A5D4
:1006400099A5AAA5BBA5B701A601481B590B6A0B22
:100650007B0B8CA19DA1AEA1BFA1481759076A07CA
:100660007B0730F32A818C859D85AE85BF8521303F
:1006700021F40196A11DB11D03C00197A109B10983
:100680008C879D87AE87BF87E881F9814C855D8522
:100690006E857F850680F781E02DCE010995C8A67D
:1006A000D9A6EAA6FBA681E0DF91CF91FF90EF905B
:1006B000DF90CF9008952F923F924F925F926F926A
:1006C0007F928F929F92AF92BF92CF92DF92EF92E2
:1006D000FF920F931F93CF93DF9300D000D0CDB73D
:1006E000DEB71C01FC01C088D188E288F3888485CC
:1006F0009585A685B785C81AD90AEA0AFB0A6489CE
:100700007589868997899B01AC010E94B4094B01C8
:100710005C01F101648D758D868D978D9B01AC0117
:100720000E94E4079B01AC01C501B4010E94550879
:100730000E94C708C114D104E104F104A1F462309D
:100740007105810591050CF07CC0F10114A215A280
:1007500016A217A2148A158A168A178A14AA15AA2D
:1007600016AA17AAFFC0F10104A915A926A937A93D
:100770001C141D041E041F0404F510161106120695
:1007800013064CF46C157D058E059F055CF52281E2
:10079000211157C027C0011511052105310509F4A4
:1007A00050C06C157D058E059F050CF04AC0F10107
:1007B0008281813009F045C039C010161106120639
:1007C0001306FCF40027112798010C191D092E09A6
:1007D0003F09601771078207930724F4F101228112
:1007E000213079F59B01AC0188279927DC01821B18
:1007F000930BA40BB50BF10184AB95ABA6ABB7ABD8
:1008000020C00115110521053105D9F0882499244E
:1008100054018C189D08AE08BF08681579058A0533
:100820009B057CF4F101828181110BC030952095EC
:10083000109501951F4F2F4F3F4F04AB15AB26ABC3
:1008400037ABF10184A895A8A6A8B7A88114910494
:10085000A104B10491F480AD91ADA2ADB3AD84AF6C
:1008600095AFA6AFB7AF81E01C141D041E041F0492
:100870000CF080E0F101828341C0F101C4ACD5AC41
:10088000E6ACF7ACA7019601C701B6010E94E407E8
:100890002B013C01C501B4010E94FF0820E030E0BB
:1008A00040E850E40E94B40920E030E040E85FE313
:1008B0000E94E4079B01AC01C301B2010E945508EC
:1008C0009B01AC01C701B6010E94E3073B016C012B
:1008D000F101E05CFF4FE080F1800281138197011C
:1008E000A8010E94AF09181614F473018601C7010C
:1008F000D801F10184AF95AFA6AFB7AFFFEF8F1A64
:100900009F0AAF0ABF0AF10184AA95AAA6AAB7AAAC
:1009100024AD35AD46AD57ADCA01B90129833A833F
:100920004B835C830E94CE08F10164A375A386A368
:1009300097A329813A814B815C8160E074E284E76E
:1009400099E40E945508F101648B758B868B978B17
:100950002281211107C0DC01CB01B058848B958B1B
:10096000A68BB78B0F900F900F900F90DF91CF91C8
:100970001F910F91FF90EF90DF90CF90BF90AF90BD
:100980009F908F907F906F905F904F903F902F90AF
:1009900008954F925F926F927F928F929F92AF9243
:1009A000BF92CF92DF92EF92FF92CF93DF93EC0151
:1009B0006A017B0120E030E0A901C701B6010E9475
:1009C000500887FF04C0F7FAF094F7F8F0948C8C85
:1009D0009D8CAE8CBF8CA7019601C501B4010E940D
:1009E0005008882309F449C06CA97DA98EA99FA944
:1009F0000E94FF082B013C01A7019601C501B4012B
:100A00000E9455089B01AC01C301B2010E94B409C8
:100A10000E94C7086CAB7DAB8EAB9FABA701960164
:100A200060E070E080E090E40E9455080E94270A90
:100A300026E53EE04DE25FE30E94B40920E034E2A7
:100A400044E759E40E94B40968AF79AF8AAF9BAF1D
:100A5000CC8EDD8EEE8EFF8ECE01DF91CF91FF909A
:100A6000EF90DF90CF90BF90AF909F908F907F904E
:100A70006F905F904F900C945B03DF91CF91FF904C
:100A8000EF90DF90CF90BF90AF909F908F907F902E
:100A90006F905F904F900895CF92EF920F93CF9306
:100AA000DF93EC0184E091E0998388836B831C865B
:100AB0001D861E861F86188A198A1A8A1B8A1C8A16
:100AC0001D8A1E8A1F8A80E090E0A0E8BFE3888F1D
:100AD000998FAA8FBB8F1C8E1D8E1E8E1F8E88A392
:100AE00099A3AAA3BBA31CA21DA21EA21FA261E0E0
:100AF00070E07DA76CA73FEF3FA718A619A61AA61E
:100B00001BA64C832D830E83EF821CAA1DAA1EAA4E
:100B10001FAA18AE19AE1AAE1BAE1CAE1DAE1EAE8D
:100B20001FAEFE01E05CFF4F80839183A283B383FD
:100B30001A82188619861A861B86CC2019F0CE01D7
:100B40000E94D50240E050E060E87FE3CE01DF91F3
:100B5000CF910F91EF90CF900C94C904CF92DF9278
:100B6000EF92FF920F931F93CF93DF93EC016A01F3
:100B70007B0120E030E0A901C701B6010E945008C6
:100B800087FF04C0F7FAF094F7F8F094A7019601F4
:100B9000688D798D8A8D9B8D0E945008882309F479
:100BA00046C0C88ED98EEA8EFB8E8E01005C1F4F28
:100BB000A701960160E074E284E799E40E94550879
:100BC000F80160837183828393838CA99DA9AEA968
:100BD000BFA9181619061A061B064CF56C897D89E3
:100BE0008E899F899B01AC010E94B4096B017C0135
:100BF0006C8D7D8D8E8D9F8D9B01AC010E94E407D5
:100C00009B01AC01C701B6010E9455080E94C708AC
:100C10006CAB7DAB8EAB9FABCE01DF91CF911F91C3
:100C20000F91FF90EF90DF90CF900C945B03DF91DA
:100C3000CF911F910F91FF90EF90DF90CF9008958B
:100C40004F925F926F927F92AF92BF92CF92DF925C
:100C5000EF92FF920F931F93CF93DF93EC015A0112
:100C60008B012C893D894E895F89B501C8010E949D
:100C70005008882309F44CC0C88CD98CEA8CFB8CB2
:100C80002601370177FA709477F87094A3019201E6
:100C9000B501C8010E94500887FD0BC0A70196014D
:100CA000B501C8010E94AF0918162CF06501780142
:100CB00002C07301620120E030E0A901C701B60162
:100CC0000E945008811105C01CA21DA21EA21FA2D5
:100CD0001BC0A701960160E074E284E799E40E94DA
:100CE00055089F770E94CE086CA37DA38EA39FA377
:100CF00011E020E030E0A901C701B6010E94AF0970
:100D000018160CF010E01A83CC8ADD8AEE8AFF8A6E
:100D1000DF91CF911F910F91FF90EF90DF90CF90D7
:100D2000BF90AF907F906F905F904F9008951F920B
:100D30000F920FB60F9211242F933F938F939F938F
:100D4000AF93BF938091A3019091A401A091A501BD
:100D5000B091A6013091A20123E0230F2D3720F49A
:100D60000196A11DB11D05C026E8230F0296A11D05
:100D7000B11D2093A2018093A3019093A401A0939D
:100D8000A501B093A6018091A7019091A801A0911F
:100D9000A901B091AA010196A11DB11D8093A701DF
:100DA0009093A801A093A901B093AA01BF91AF911C
:100DB0009F918F913F912F910F900FBE0F901F9099
:100DC00018953FB7F8948091A7019091A801A09140
:100DD000A901B091AA0126B5A89B05C02F3F19F023
:100DE0000196A11DB11D3FBFBA2FA92F982F8827AB
:100DF000820F911DA11DB11DBC01CD0142E0660F06
:100E0000771F881F991F4A95D1F70895019739F0E8
:100E1000880F991F880F991F02970197F1F708957E
:100E2000789484B5826084BD84B5816084BD85B5C5
:100E3000826085BD85B5816085BDEEE6F0E080818C
:100E400081608083E1E8F0E01082808182608083AD
:100E5000808181608083E0E8F0E080818160808330
:100E6000E1EBF0E0808184608083E0EBF0E0808162
:100E700081608083EAE7F0E0808184608083808104
:100E800082608083808181608083808180688083AC
:100E90001092C1000895833081F028F4813099F0D8
:100EA0008230A1F008958630A9F08730B9F08430FF
:100EB000D1F4809180008F7D03C0809180008F7776
:100EC00080938000089584B58F7702C084B58F7DAC
:100ED00084BD08958091B0008F7703C08091B000E9
:100EE0008F7D8093B0000895CF93DF9390E0FC0155
:100EF000E456FF4F2491FC01E055FF4F8491882375
:100F000061F190E0880F991FFC01E253FF4FC591FA
:100F1000D491FC01EC53FF4FA591B491611109C02C
:100F20009FB7F8948881209582238883EC912E23A3
:100F30000BC0623061F49FB7F8943881822F80959E
:100F400083238883EC912E2B2C939FBF06C08FB7F1
:100F5000F894E8812E2B28838FBFDF91CF910895DD
:100F60001F93CF93DF93282F30E0F901E857FF4F0D
:100F70008491F901E456FF4FD491F901E055FF4FF8
:100F8000C491CC23C9F0162F81110E944B07EC2F7E
:100F9000F0E0EE0FFF1FEC53FF4FA591B4918FB718
:100FA000F894111105C09C91ED2FE095E92302C042
:100FB000EC91ED2BEC938FBFDF91CF911F910895B2
:100FC000F8940C94C30A5058BB27AA270E94FB0729
:100FD0000C9475090E94670938F00E946E0920F090
:100FE00039F49F3F19F426F40C9464090EF4E0954B
:100FF000E7FB0C945E09E92F0E94860958F3BA17A3
:10100000620773078407950720F079F4A6F50C941E
:10101000A8090EF4E0950B2EBA2FA02D0B01B901F3
:1010200090010C01CA01A0011124FF27591B99F05E
:10103000593F50F4503E68F11A16F040A22F232F6A
:10104000342F4427585FF3CF469537952795A795BA
:10105000F0405395C9F77EF41F16BA0B620B730B61
:10106000840BBAF09150A1F0FF0FBB1F661F771FD2
:10107000881FC2F70EC0BA0F621F731F841F48F487
:10108000879577956795B795F7959E3F08F0B0CF10
:101090009395880F08F09927EE0F979587950895F7
:1010A0000E943A0908F481E008950E9469080C94AE
:1010B00075090E946E0958F00E94670940F029F4F2
:1010C0005F3F29F00C945E0951110C94A9090C940E
:1010D00064090E94860968F39923B1F3552391F3BB
:1010E000951B550BBB27AA2762177307840738F097
:1010F0009F5F5F4F220F331F441FAA1FA9F335D0F4
:101100000E2E3AF0E0E832D091505040E695001CA7
:10111000CAF72BD0FE2F29D0660F771F881FBB1F61
:10112000261737074807AB07B0E809F0BB0B802D3F
:10113000BF01FF2793585F4F3AF09E3F510578F06B
:101140000C945E090C94A9095F3FE4F3983ED4F334
:10115000869577956795B795F7959F5FC9F7880F3F
:10116000911D9695879597F90895E1E0660F771F91
:10117000881FBB1F621773078407BA0720F0621B22
:10118000730B840BBA0BEE1F88F7E09508950E944D
:10119000CE086894B1110C94A90908950E948E0993
:1011A00088F09F5798F0B92F9927B751B0F0E1F028
:1011B000660F771F881F991F1AF0BA95C9F714C0D8
:1011C000B13091F00E94A809B1E008950C94A809EB
:1011D000672F782F8827B85F39F0B93FCCF3869511
:1011E00077956795B395D9F73EF49095809570956E
:1011F00061957F4F8F4F9F4F0895E89409C097FBEB
:101200003EF490958095709561957F4F8F4F9F4FDD
:101210009923A9F0F92F96E9BB279395F695879521
:1012200077956795B795F111F8CFFAF4BB0F11F4E4
:1012300060FF1BC06F5F7F4F8F4F9F4F16C088238B
:1012400011F096E911C0772321F09EE8872F762FC1
:1012500005C0662371F096E8862F70E060E02AF002
:101260009A95660F771F881FDAF7880F96958795EE
:1012700097F90895990F0008550FAA0BE0E8FEEFC3
:1012800016161706E807F907C0F012161306E4074A
:10129000F50798F0621B730B840B950B39F40A2643
:1012A00061F0232B242B252B21F408950A2609F421
:1012B000A140A6958FEF811D811D089597F99F6725
:1012C00080E870E060E008959FEF80EC08950024CE
:1012D0000A941616170618060906089500240A949B
:1012E00012161306140605060895092E0394000C21
:1012F00011F4882352F0BB0F40F4BF2B11F460FFB0
:1013000004C06F5F7F4F8F4F9F4F089557FD9058D8
:10131000440F551F59F05F3F71F04795880F97FBB9
:10132000991F61F09F3F79F0879508951216130673
:101330001406551FF2CF4695F1DF08C016161706A2
:101340001806991FF1CF86957105610508940895D7
:10135000E894BB2766277727CB0197F908950E9469
:101360003A0908F48FEF08950E94C7090C94750993
:101370000E94670938F00E946E0920F0952311F051
:101380000C945E090C94640911240C94A9090E9420
:10139000860970F3959FC1F3950F50E0551F629F2A
:1013A000F001729FBB27F00DB11D639FAA27F00DBE
:1013B000B11DAA1F649F6627B00DA11D661F829FE5
:1013C0002227B00DA11D621F739FB00DA11D621FCA
:1013D000839FA00D611D221F749F3327A00D611DE7
:1013E000231F849F600D211D822F762F6A2F1124C9
:1013F0009F5750409AF0F1F088234AF0EE0FFF1FFC
:10140000BB1F661F771F881F91505040A9F79E3F52
:10141000510580F00C945E090C94A9095F3FE4F338
:10142000983ED4F3869577956795B795F795E795A8
:101430009F5FC1F7FE2B880F911D9695879597F9B1
:10144000089519F416F40C9464090C94670A0E9428
:101450008E09B8F39923C9F3B6F39F57550B87FF4D
:101460000E94750A0024A0E640EA90018058569533
:10147000979528F4805C660F771F881F20F0261749
:101480003707480730F4621B730B840B202931297E
:101490004A2BA69517940794202531254A2758F7FB
:1014A000660F771F881F20F026173707480730F48C
:1014B000620B730B840B200D311D411DA09581F72C
:1014C000B901842F9158880F9695879508959F3F6D
:1014D00031F0915020F4879577956795B795880FEF
:1014E000911D9695879597F9089591505040660FF4
:1014F000771F881FD2F70895052E97FB1EF40094DE
:101500000E94930A57FD07D00E94A10A07FC03D04E
:101510004EF40C94930A50954095309521953F4F89
:101520004F4F5F4F089590958095709561957F4FCF
:101530008F4F9F4F0895EE0FFF1F0590F491E02D00
:101540000994A1E21A2EAA1BBB1BFD010DC0AA1F04
:10155000BB1FEE1FFF1FA217B307E407F50720F01C
:10156000A21BB30BE40BF50B661F771F881F991F97
:101570001A9469F760957095809590959B01AC01E0
:0A158000BD01CF010895F894FFCFDC
:10158A0000000000B702D502C501E6002B020102E5
:0A159A004102620296022B0181015A
:00000001FF
